:060000000200160201B728
:100013000201BD79647A647B647C647D6420076D2E
:10002300758000759000E5B0540FB40F0280EE1296
:10003300017CE5B0540FB40F0280F412017CE5B0EB
:10004300540FB40F0280F47590FEE5B0540FB40F53
:10005300147590FDE5B0540FB40F137590FBE5B024
:10006300540FB40F12900300120083020020900378
:100073000412008302002090030812008302002070
:10008300135003A380FA740093120117227590038F
:1000930075A885E92BFDEC2EFA8A208C21B8004443
:1000A3007580841201721520D521F28E21B800408B
:1000B3007580441201721521D520F289208D21B853
:1000C300003A7580301201721521D520F28B20B8C9
:1000D30000367580281201721521D520F28A208CF2
:1000E300210200A07400F5A020B1F9780080AE22AF
:1000F3007400F5A020B1F9780080B2227400F5A055
:1001030020B1F9780080B8227400F5A020B1F97805
:100113000080BC22B42A05D207020171540FB964CE
:1001230009F98921120172020171BA6410FAE975A1
:10013300F00AA42AF98921120172020171BB640930
:10014300FB8B21120172020171BC6409FC8C211228
:100153000172020171BD6410FDEC75F00AA42DFC5F
:100163008C21120172020171FE8E2112017222751D
:10017300301412017CD530FA22758AB0758C3C7527
:100183008901D28CE52075F00A84F5A0D2A4C2A41B
:10019300E5F0F5A0D2A5C2A5E52175F00A84F5A086
:1001A300D2A6C2A6E5F0F5A0D2A7C2A7308DD5C2CC
:1001B3008CC28D227580847801327580307801324B
:0C0300003134372A323538303336392397
:00000001FF
